{
  "contractName": "Swaps",
  "abi": [
    {
      "inputs": [
        {
          "internalType": "address",
          "name": "_baseToken",
          "type": "address"
        },
        {
          "internalType": "address",
          "name": "_referToken",
          "type": "address"
        },
        {
          "internalType": "uint256",
          "name": "_ratio",
          "type": "uint256"
        }
      ],
      "name": "initialize",
      "outputs": [],
      "stateMutability": "nonpayable",
      "type": "function"
    },
    {
      "inputs": [],
      "name": "getBaseToken",
      "outputs": [
        {
          "internalType": "address",
          "name": "",
          "type": "address"
        }
      ],
      "stateMutability": "view",
      "type": "function"
    },
    {
      "inputs": [],
      "name": "getReferToken",
      "outputs": [
        {
          "internalType": "address",
          "name": "",
          "type": "address"
        }
      ],
      "stateMutability": "view",
      "type": "function"
    },
    {
      "inputs": [],
      "name": "getRatio",
      "outputs": [
        {
          "internalType": "uint256",
          "name": "",
          "type": "uint256"
        }
      ],
      "stateMutability": "view",
      "type": "function"
    },
    {
      "inputs": [
        {
          "internalType": "uint256",
          "name": "amount",
          "type": "uint256"
        },
        {
          "internalType": "bool",
          "name": "swapReferTokenToBaseToken",
          "type": "bool"
        }
      ],
      "name": "swap",
      "outputs": [],
      "stateMutability": "nonpayable",
      "type": "function"
    }
  ],
  "bytecode": "0x608060405234801561001057600080fd5b506109bd806100206000396000f3fe608060405234801561001057600080fd5b50600436106100575760003560e01c80631794bb3c1461005c5780631ee89da3146100785780632aea66051461009657806398acd7a6146100b2578063ec1ebd7a146100d0575b600080fd5b6100766004803603810190610071919061063a565b6100ee565b005b61008061025e565b60405161008d919061069c565b60405180910390f35b6100b060048036038101906100ab91906106ef565b610288565b005b6100ba61053a565b6040516100c7919061069c565b60405180910390f35b6100d8610563565b6040516100e5919061073e565b60405180910390f35b600060019054906101000a900460ff166101165760008054906101000a900460ff161561011f565b61011e61056d565b5b61015e576040517f08c379a0000000000000000000000000000000000000000000000000000000008152600401610155906107dc565b60405180910390fd5b60008060019054906101000a900460ff1615905080156101ae576001600060016101000a81548160ff02191690831515021790555060016000806101000a81548160ff0219169083151502179055505b83600060026101000a81548173ffffffffffffffffffffffffffffffffffffffff021916908373ffffffffffffffffffffffffffffffffffffffff16021790555082600260006101000a81548173ffffffffffffffffffffffffffffffffffffffff021916908373ffffffffffffffffffffffffffffffffffffffff1602179055508160048190555080156102585760008060016101000a81548160ff0219169083151502179055505b50505050565b6000600260009054906101000a900473ffffffffffffffffffffffffffffffffffffffff16905090565b80156103e457600260009054906101000a900473ffffffffffffffffffffffffffffffffffffffff1673ffffffffffffffffffffffffffffffffffffffff166323b872dd3330856040518463ffffffff1660e01b81526004016102ed939291906107fc565b6020604051808303816000875af115801561030c573d6000803e3d6000fd5b505050506040513d601f19601f820116820180604052508101906103309190610848565b50600060029054906101000a900473ffffffffffffffffffffffffffffffffffffffff1673ffffffffffffffffffffffffffffffffffffffff1663a9059cbb336004548561037e91906108a4565b6040518363ffffffff1660e01b815260040161039b9291906108fe565b6020604051808303816000875af11580156103ba573d6000803e3d6000fd5b505050506040513d601f19601f820116820180604052508101906103de9190610848565b50610536565b600060029054906101000a900473ffffffffffffffffffffffffffffffffffffffff1673ffffffffffffffffffffffffffffffffffffffff166323b872dd3330856040518463ffffffff1660e01b8152600401610443939291906107fc565b6020604051808303816000875af1158015610462573d6000803e3d6000fd5b505050506040513d601f19601f820116820180604052508101906104869190610848565b50600260009054906101000a900473ffffffffffffffffffffffffffffffffffffffff1673ffffffffffffffffffffffffffffffffffffffff1663a9059cbb33600454856104d49190610956565b6040518363ffffffff1660e01b81526004016104f19291906108fe565b6020604051808303816000875af1158015610510573d6000803e3d6000fd5b505050506040513d601f19601f820116820180604052508101906105349190610848565b505b5050565b60008060029054906101000a900473ffffffffffffffffffffffffffffffffffffffff16905090565b6000600454905090565b60006105783061057e565b15905090565b6000808273ffffffffffffffffffffffffffffffffffffffff163b119050919050565b600080fd5b600073ffffffffffffffffffffffffffffffffffffffff82169050919050565b60006105d1826105a6565b9050919050565b6105e1816105c6565b81146105ec57600080fd5b50565b6000813590506105fe816105d8565b92915050565b6000819050919050565b61061781610604565b811461062257600080fd5b50565b6000813590506106348161060e565b92915050565b600080600060608486031215610653576106526105a1565b5b6000610661868287016105ef565b9350506020610672868287016105ef565b925050604061068386828701610625565b9150509250925092565b610696816105c6565b82525050565b60006020820190506106b1600083018461068d565b92915050565b60008115159050919050565b6106cc816106b7565b81146106d757600080fd5b50565b6000813590506106e9816106c3565b92915050565b60008060408385031215610706576107056105a1565b5b600061071485828601610625565b9250506020610725858286016106da565b9150509250929050565b61073881610604565b82525050565b6000602082019050610753600083018461072f565b92915050565b600082825260208201905092915050565b7f496e697469616c697a61626c653a20636f6e747261637420697320616c72656160008201527f647920696e697469616c697a6564000000000000000000000000000000000000602082015250565b60006107c6602e83610759565b91506107d18261076a565b604082019050919050565b600060208201905081810360008301526107f5816107b9565b9050919050565b6000606082019050610811600083018661068d565b61081e602083018561068d565b61082b604083018461072f565b949350505050565b600081519050610842816106c3565b92915050565b60006020828403121561085e5761085d6105a1565b5b600061086c84828501610833565b91505092915050565b7f4e487b7100000000000000000000000000000000000000000000000000000000600052601160045260246000fd5b60006108af82610604565b91506108ba83610604565b9250817fffffffffffffffffffffffffffffffffffffffffffffffffffffffffffffffff04831182151516156108f3576108f2610875565b5b828202905092915050565b6000604082019050610913600083018561068d565b610920602083018461072f565b9392505050565b7f4e487b7100000000000000000000000000000000000000000000000000000000600052601260045260246000fd5b600061096182610604565b915061096c83610604565b92508261097c5761097b610927565b5b82820490509291505056fea2646970667358221220d93561e0e9d55344a031ca8b19e51c4c9970f738880fc1fdb5e76b0abed98f7364736f6c634300080c0033",
  "immutableReferences": {},
  "source": "//SPDX-License-Identifier: MIT\n\npragma solidity ^0.8.0;\n\nimport \"@openzeppelin/contracts-upgradeable/proxy/utils/Initializable.sol\";\nimport \"@openzeppelin/contracts-upgradeable/token/ERC20/ERC20Upgradeable.sol\";\n\n\ncontract Swaps is Initializable {\n\n    ERC20Upgradeable baseToken;\n    address baseOwner;\n    ERC20Upgradeable referToken;\n    address referOwner;\n    \n    // refToken =>  ratio-baseToken\n    uint256 ratio;\n\n    function initialize(\n        address _baseToken, \n        address _referToken,\n        uint256 _ratio\n    ) public initializer {\n        baseToken = ERC20Upgradeable(_baseToken);\n        referToken = ERC20Upgradeable(_referToken);\n        ratio = _ratio;\n    }\n\n    function getBaseToken() public view returns (address) {\n        return address(baseToken);\n    }\n\n    function getReferToken() public view returns (address) {\n        return address(referToken);\n    }\n\n\n    function getRatio() public view returns (uint256) {\n        return ratio;\n    }\n\n    function swap( uint256 amount, bool swapReferTokenToBaseToken) public{\n\n        if(swapReferTokenToBaseToken){\n            referToken.transferFrom(msg.sender, address(this), amount);\n            baseToken.transfer(msg.sender, amount  * ratio);\n        }else {\n            baseToken.transferFrom(msg.sender, address(this), amount);\n            referToken.transfer(msg.sender, amount  / ratio);\n        }\n\n    }\n}\n",
  "sourcePath": "/opt/test-company/contracts/Swap.sol",
  "compiler": {
    "name": "solc",
    "version": "0.8.12+commit.f00d7308.Emscripten.clang"
  },
  "schemaVersion": "3.4.5",
  "updatedAt": "2022-04-03T07:16:21.932Z",
  "devdoc": {
    "kind": "dev",
    "methods": {},
    "version": 1
  },
  "userdoc": {
    "kind": "user",
    "methods": {},
    "version": 1
  }
}